{
  "address": "0xf05CBB778d24dF9C935b6f94405D21641570bfEE",
  "abi": [
    {
      "inputs": [
        {
          "internalType": "address",
          "name": "trustedForwarder",
          "type": "address"
        }
      ],
      "stateMutability": "nonpayable",
      "type": "constructor"
    },
    {
      "anonymous": false,
      "inputs": [
        {
          "indexed": true,
          "internalType": "address",
          "name": "contractAddress",
          "type": "address"
        }
      ],
      "name": "Received",
      "type": "event"
    },
    {
      "inputs": [
        {
          "internalType": "address",
          "name": "",
          "type": "address"
        }
      ],
      "name": "count",
      "outputs": [
        {
          "internalType": "uint256",
          "name": "",
          "type": "uint256"
        }
      ],
      "stateMutability": "view",
      "type": "function"
    },
    {
      "inputs": [],
      "name": "increment",
      "outputs": [],
      "stateMutability": "nonpayable",
      "type": "function"
    },
    {
      "inputs": [
        {
          "internalType": "address",
          "name": "forwarder",
          "type": "address"
        }
      ],
      "name": "isTrustedForwarder",
      "outputs": [
        {
          "internalType": "bool",
          "name": "",
          "type": "bool"
        }
      ],
      "stateMutability": "view",
      "type": "function"
    },
    {
      "inputs": [],
      "name": "owner",
      "outputs": [
        {
          "internalType": "address",
          "name": "",
          "type": "address"
        }
      ],
      "stateMutability": "view",
      "type": "function"
    },
    {
      "inputs": [
        {
          "internalType": "address",
          "name": "trustedForwarder",
          "type": "address"
        }
      ],
      "name": "setTrustedForwarder",
      "outputs": [],
      "stateMutability": "nonpayable",
      "type": "function"
    }
  ],
  "transactionHash": "0x7446dd8e2106ed839e4a406da11bd0cb5391f5a523996aa2ca6c6c115baff2b0",
  "args": [
    "0x7bC5a85d3Fd6A50F4085bc97320fEC88409d76a9"
  ],
  "numDeployments": 10,
  "solcInputHash": "13c3ce14264c493e3f32bf9648c878da",
  "bytecode": "0x608060405234801561001057600080fd5b5060405161049038038061049083398101604081905261002f91610062565b600180546001600160a01b03199081163317909155600080546001600160a01b0390931692909116919091179055610092565b60006020828403121561007457600080fd5b81516001600160a01b038116811461008b57600080fd5b9392505050565b6103ef806100a16000396000f3fe608060405234801561001057600080fd5b50600436106100675760003560e01c80638da5cb5b116100505780638da5cb5b146100d1578063d09de08a146100fc578063da7422281461010657600080fd5b806305d85eda1461006c578063572b6c051461009f575b600080fd5b61008c61007a36600461034a565b60026020526000908152604090205481565b6040519081526020015b60405180910390f35b6100c16100ad36600461034a565b6000546001600160a01b0391821691161490565b6040519015158152602001610096565b6001546100e4906001600160a01b031681565b6040516001600160a01b039091168152602001610096565b610104610119565b005b61010461011436600461034a565b610213565b6000546001600160a01b03163314610192576040517f08c379a000000000000000000000000000000000000000000000000000000000815260206004820152600b60248201527f436f756e7465723a34323900000000000000000000000000000000000000000060448201526064015b60405180910390fd5b61019a6102c1565b6001600160a01b03167f7c6a000d6581009ece38db2bf0a802db87c25d55bdf668f06a962b9c7188477360405160405180910390a26001600260006101dd610306565b6001600160a01b03166001600160a01b03168152602001908152602001600020600082825461020c919061037a565b9091555050565b6001546001600160a01b03163314610287576040517f08c379a000000000000000000000000000000000000000000000000000000000815260206004820152600360248201527f34303300000000000000000000000000000000000000000000000000000000006044820152606401610189565b600080547fffffffffffffffffffffffff0000000000000000000000000000000000000000166001600160a01b0392909216919091179055565b600080546001600160a01b031633141561030057507fffffffffffffffffffffffffffffffffffffffffffffffffffffffffffffffd836013560601c90565b50600090565b600080546001600160a01b031633141561034557507fffffffffffffffffffffffffffffffffffffffffffffffffffffffffffffffec36013560601c90565b503390565b60006020828403121561035c57600080fd5b81356001600160a01b038116811461037357600080fd5b9392505050565b600082198211156103b4577f4e487b7100000000000000000000000000000000000000000000000000000000600052601160045260246000fd5b50019056fea2646970667358221220d35d7c311fe053ca28770206bdd4d188ba919bc5e533858a01104598c718611a64736f6c63430008090033",
  "devdoc": {
    "kind": "dev",
    "methods": {},
    "version": 1
  },
  "userdoc": {
    "kind": "user",
    "methods": {},
    "version": 1
  },
  "storageLayout": {
    "storage": [
      {
        "astId": 1254,
        "contract": "src/Counter.sol:Counter",
        "label": "_trustedForwarder",
        "offset": 0,
        "slot": "0",
        "type": "t_address"
      },
      {
        "astId": 1256,
        "contract": "src/Counter.sol:Counter",
        "label": "owner",
        "offset": 0,
        "slot": "1",
        "type": "t_address"
      },
      {
        "astId": 1195,
        "contract": "src/Counter.sol:Counter",
        "label": "count",
        "offset": 0,
        "slot": "2",
        "type": "t_mapping(t_address,t_uint256)"
      },
      {
        "astId": 1201,
        "contract": "src/Counter.sol:Counter",
        "label": "registeredNFTs",
        "offset": 0,
        "slot": "3",
        "type": "t_mapping(t_address,t_mapping(t_uint256,t_address))"
      }
    ],
    "types": {
      "t_address": {
        "encoding": "inplace",
        "label": "address",
        "numberOfBytes": "20"
      },
      "t_mapping(t_address,t_mapping(t_uint256,t_address))": {
        "encoding": "mapping",
        "key": "t_address",
        "label": "mapping(address => mapping(uint256 => address))",
        "numberOfBytes": "32",
        "value": "t_mapping(t_uint256,t_address)"
      },
      "t_mapping(t_address,t_uint256)": {
        "encoding": "mapping",
        "key": "t_address",
        "label": "mapping(address => uint256)",
        "numberOfBytes": "32",
        "value": "t_uint256"
      },
      "t_mapping(t_uint256,t_address)": {
        "encoding": "mapping",
        "key": "t_uint256",
        "label": "mapping(uint256 => address)",
        "numberOfBytes": "32",
        "value": "t_address"
      },
      "t_uint256": {
        "encoding": "inplace",
        "label": "uint256",
        "numberOfBytes": "32"
      }
    }
  }
}