{
  "address": "0x7dBE4c461FCb78c71a86ff6ed4031B485b842a4d",
  "abi": [
    {
      "inputs": [
        {
          "internalType": "address",
          "name": "trustedForwarder",
          "type": "address"
        }
      ],
      "stateMutability": "nonpayable",
      "type": "constructor"
    },
    {
      "anonymous": false,
      "inputs": [
        {
          "indexed": true,
          "internalType": "bytes",
          "name": "nftData",
          "type": "bytes"
        }
      ],
      "name": "Received",
      "type": "event"
    },
    {
      "inputs": [
        {
          "internalType": "address",
          "name": "",
          "type": "address"
        }
      ],
      "name": "count",
      "outputs": [
        {
          "internalType": "uint256",
          "name": "",
          "type": "uint256"
        }
      ],
      "stateMutability": "view",
      "type": "function"
    },
    {
      "inputs": [],
      "name": "increment",
      "outputs": [],
      "stateMutability": "nonpayable",
      "type": "function"
    },
    {
      "inputs": [
        {
          "internalType": "address",
          "name": "forwarder",
          "type": "address"
        }
      ],
      "name": "isTrustedForwarder",
      "outputs": [
        {
          "internalType": "bool",
          "name": "",
          "type": "bool"
        }
      ],
      "stateMutability": "view",
      "type": "function"
    },
    {
      "inputs": [],
      "name": "owner",
      "outputs": [
        {
          "internalType": "address",
          "name": "",
          "type": "address"
        }
      ],
      "stateMutability": "view",
      "type": "function"
    },
    {
      "inputs": [
        {
          "internalType": "address",
          "name": "trustedForwarder",
          "type": "address"
        }
      ],
      "name": "setTrustedForwarder",
      "outputs": [],
      "stateMutability": "nonpayable",
      "type": "function"
    }
  ],
  "transactionHash": "0xc9089056c39f226c9c58c4619905ad97e81494929e38e974dfd854a64f4c364c",
  "args": [
    "0xbfB8f916F41888AB2D91F3aE0327FE282665CA63"
  ],
  "numDeployments": 9,
  "solcInputHash": "462a23228758c2b7aa35e5112d1f80e2",
  "bytecode": "0x608060405234801561001057600080fd5b506040516104cb3803806104cb83398101604081905261002f91610062565b600180546001600160a01b03199081163317909155600080546001600160a01b0390931692909116919091179055610092565b60006020828403121561007457600080fd5b81516001600160a01b038116811461008b57600080fd5b9392505050565b61042a806100a16000396000f3fe608060405234801561001057600080fd5b50600436106100675760003560e01c80638da5cb5b116100505780638da5cb5b146100d1578063d09de08a146100fc578063da7422281461010657600080fd5b806305d85eda1461006c578063572b6c051461009f575b600080fd5b61008c61007a36600461032c565b60026020526000908152604090205481565b6040519081526020015b60405180910390f35b6100c16100ad36600461032c565b6000546001600160a01b0391821691161490565b6040519015158152602001610096565b6001546100e4906001600160a01b031681565b6040516001600160a01b039091168152602001610096565b610104610119565b005b61010461011436600461032c565b61023a565b6000546001600160a01b03163314610192576040517f08c379a000000000000000000000000000000000000000000000000000000000815260206004820152600b60248201527f436f756e7465723a34323900000000000000000000000000000000000000000060448201526064015b60405180910390fd5b6000366101a060288261038b565b906101ac60143661038b565b926101b9939291906103a2565b6040516101c79291906103cc565b604051908190038120907e8c945028a0dff69f1ba4ca539d79d3548a9a93a8db7ebfb097e6c5be4ccf5d90600090a26001600260006102046102e8565b6001600160a01b03166001600160a01b03168152602001908152602001600020600082825461023391906103dc565b9091555050565b6001546001600160a01b031633146102ae576040517f08c379a000000000000000000000000000000000000000000000000000000000815260206004820152600360248201527f34303300000000000000000000000000000000000000000000000000000000006044820152606401610189565b600080547fffffffffffffffffffffffff0000000000000000000000000000000000000000166001600160a01b0392909216919091179055565b600080546001600160a01b031633141561032757507fffffffffffffffffffffffffffffffffffffffffffffffffffffffffffffffec36013560601c90565b503390565b60006020828403121561033e57600080fd5b81356001600160a01b038116811461035557600080fd5b9392505050565b7f4e487b7100000000000000000000000000000000000000000000000000000000600052601160045260246000fd5b60008282101561039d5761039d61035c565b500390565b600080858511156103b257600080fd5b838611156103bf57600080fd5b5050820193919092039150565b8183823760009101908152919050565b600082198211156103ef576103ef61035c565b50019056fea2646970667358221220082a395a7ff134491261eb8b6af398db5bc47a8650a7c4386798812545d1559864736f6c63430008090033",
  "devdoc": {
    "kind": "dev",
    "methods": {},
    "version": 1
  },
  "userdoc": {
    "kind": "user",
    "methods": {},
    "version": 1
  },
  "storageLayout": {
    "storage": [
      {
        "astId": 1265,
        "contract": "src/Counter.sol:Counter",
        "label": "_trustedForwarder",
        "offset": 0,
        "slot": "0",
        "type": "t_address"
      },
      {
        "astId": 1267,
        "contract": "src/Counter.sol:Counter",
        "label": "owner",
        "offset": 0,
        "slot": "1",
        "type": "t_address"
      },
      {
        "astId": 1195,
        "contract": "src/Counter.sol:Counter",
        "label": "count",
        "offset": 0,
        "slot": "2",
        "type": "t_mapping(t_address,t_uint256)"
      },
      {
        "astId": 1201,
        "contract": "src/Counter.sol:Counter",
        "label": "registeredNFTs",
        "offset": 0,
        "slot": "3",
        "type": "t_mapping(t_address,t_mapping(t_uint256,t_address))"
      }
    ],
    "types": {
      "t_address": {
        "encoding": "inplace",
        "label": "address",
        "numberOfBytes": "20"
      },
      "t_mapping(t_address,t_mapping(t_uint256,t_address))": {
        "encoding": "mapping",
        "key": "t_address",
        "label": "mapping(address => mapping(uint256 => address))",
        "numberOfBytes": "32",
        "value": "t_mapping(t_uint256,t_address)"
      },
      "t_mapping(t_address,t_uint256)": {
        "encoding": "mapping",
        "key": "t_address",
        "label": "mapping(address => uint256)",
        "numberOfBytes": "32",
        "value": "t_uint256"
      },
      "t_mapping(t_uint256,t_address)": {
        "encoding": "mapping",
        "key": "t_uint256",
        "label": "mapping(uint256 => address)",
        "numberOfBytes": "32",
        "value": "t_address"
      },
      "t_uint256": {
        "encoding": "inplace",
        "label": "uint256",
        "numberOfBytes": "32"
      }
    }
  }
}